:020000040000FA
:2000000002024EC28B21F0FFFFFFFFD290C20A32FFFFFF0536301C4432FFFFD52A13112297
:20002000414E32109908A899C29B8699C298C2893210940ED29485418D85408B201C02C2FF
:20004000893285458D85448B854341854240853637753600D217201C02C28932D52B31D5E3
:200060002D0312100053A8EA1196308BFD0536C28BD52D0312100020100D20B303308BFA73
:20008000B291208B070182308BFDB291D2AA0197D52D0312100032C0E0C0D020911AE4A2FF
:2000A00010353013149210C2AA252BF52BD2AAC289D2A8D0D0D0E022C083C082C0F090119D
:2000C00060E4A21035339531C39557C3952F13149210C2AA252BF52BD2AA7403253593C27F
:2000E000AA252DF52DD2AA511DC289D2A875D018021029D534367D2D20160C7D2B2015078C
:200100007D292014027D27ED93F5340DED93FDE532FEAF31C39FC330E70AF4049DEE400A24
:20012000EF9D212A9DEE4002EF2DF5317401930535B5350F753500900000F0F0F0F0901103
:20014000602166201A20100F0221E575F040E54CA4FEAFF0300A64C28CC3E58A9EF58AE500
:200160008C9FF58C21D0C37411939537721D406EAE4AAF4B02102C201A41300D2DE54DB403
:200180001000400CC20D301605C21675340121AA901140200E02241093B44008301605C2BB
:2001A0001675340191D97402B109300F0EC20F75F040E54CA42EFEE5F03FFF02102FE55494
:2001C00075F005A4C28C2EF4F58AE5F03FF4F58CC2AFC290D20AD28CD2A9C289D2AFE54D23
:2001E00020E702054DD0F0D082D083D0D0D0E022C0D0A2B3728B852C2B852E2D4004A21138
:200200004108B0114002052B9210D52B06052B15301530753500A2139291D0D032740293A3
:20022000F52ED213740093D39531C39557C3952F5005C3C213352FC31360F8F52C92117429
:200240000725359325312557F533852F302275A8807590FF75B0FF75891175B802758805A5
:2002600075989075816390116075D0007864E402100BF6D8FD02100ED21C78007940120A3F
:2002800005D28ED2ABD2AAD28F3017FDC2173017FDD21A121005740E93F851BFD8FC021028
:2002A00017C28975A000F2F2F2F2740D93F52A301703C217F23089F5D2A8C21C0210083067
:2002C000B3FD20B3FD2275A000E27A3278107B08E2DAFE05A0E2F6087A32E2DBF4E512F447
:2002E000FC7A01B11DF512E513F4FCB11DF5137838793C7A047B33201C05E614F67008EBCF
:2003000093F6E7600214F708090BDAEB741893B537004064201C61AD55E537C39D92D5509E
:2003200002F404C5F0741593A4FE20E704C5F060027E7FE55630D50FC39E50172480BD00B9
:200340000280101555800C2E50092480BDFF0280020555F556741993B5490074004015E539
:2003600055B5370280074009741693800774008003741793F55780098537557556807557B4
:2003800000301A237D00741293F54975F019A4FEAFF07401938549F0A475F019A485F04616
:2003A000F5477548008105AB3774328BF084FF91EAFEE51075F02084FAABF09010F4939174
:2003C000D99010FCEA93B109901104EB9391D99011607413913D7414913FEEFBEFFC7A1BCD
:2003E00012051DFDAA46A947A8481205FA8A4689478848AF46AE4774A491D97404B1098F4E
:2004000049AF46AE47021032C050021035A84EA94F9155E550B109D0501210387A1AB11D6F
:20042000F554C2AF8F4B8E4AC289D2AF12103B301E087950D2ACD9FCC2AC02103ED2D593BD
:2004400075F019A4FB9EE5F09F10D501B35005EBFEE5F0FF22E88EF0A4ADF0E98EF0A42DC1
:20046000FDE435F0FEE88FF0A42DFDEE35F0FEE433CFF5F0E9A42EFEEF35F0FF22201A49F6
:20048000201846C3E5109553403FF503743793C39537500575F00081A47A1C12051DF5F06C
:2004A00012051DA4200F0385F04C7A1E12051D6018F5F0E54C6002D20F12051DA4B11DA48A
:2004C000E5F0B53D004002F53D855253855152851051E53D12087D810DFD8EF0A4AEF0CDD8
:2004E0008FF0A42EFEE435F0FF22E47C08C333C5F03310D70B9B50012BC5F0DCF133F42269
:200500009BC3C5F0DCE833F4226005CF30E702CF22C3CD33CDCE33CE33CF14A109C0F0901E
:200520001090EA0AD2D393B4FF04D22AA170C22AA2E0C2E09011E0FF0F93CF93F5828F830E
:200540004006B178B1A1A170B17889F0E8FEEBFFB178EAA429F9EF6002B1A1CAF40429F9F7
:20056000B1A1CF7003CFA170FB8EF0CFFDEAB1B0C2D3D0F090116022E493F8A3E493FAF983
:20058000E6F8E99328F84006D9F809E4A194E96A6002E993FBA3EA2582F582E43583F583BD
:2005A00022EB7004E914932288F0E91493FDE993C39D92D55002F404A4A1DAC5F0C333406C
:2005C000029BB3E435F030D502F4042D22D2D3B17819E993901160C2D3227C08C333C5F02A
:2005E0003310D70C9B50012BC5F0DCF133F4A1BB9BC3C5F0DCE733F4A1BBEBC399FEEC9A95
:20060000FF7004EE7001F84010ED91D9C3ED28F8EE39F9EF3AFA020631C3EEF42401FEEF66
:20062000F43400FFED91D9C3E89DF8E99EF9EA9FFA22E4A296338001E4A2B4332AFA22D183
:2006400041740F937800F9D15230B3FBD15220B3FB22D804D902414E22901124B1CD13926E
:2006600019139218021047E515B48000B3921BE514B48000B3922E741093C39537500A7AA3
:2006800003B11DC39537400422D21A22C21A227D00C3301A067A04F1AAC1E13018087A076C
:2006A000F1AAD138C1DA3019087A0BF1AAD138C1C57A1174209395494006F1AAD132C1DAEC
:2006C0001AF1AAD13290112EB1CD30E20D742193C3953750057422932DFDB11D2DC3941431
:2006E000FD02104A7A17B11D2DC39414FDF8A2E7742350010493F95001C8C3985002E9FD08
:20070000EDA2E713FD02104D201A653018247A19B11DC395375027FB7432200E0274319379
:200720002B404DD215EDB53147D21DC215F532F53122C20EC215301D37742F93E148C2156A
:20074000301D2DD20E7430932531F5318D32C3ED953130E70C753401754D00D20DC21DE129
:2007600070742D93F534D216754D00D20DC21D22C3742593954940067426939537B330141F
:2007800001B3500BB214201606201503753401ED301C05F531753401ED30160BC395313061
:2007A000E705C2167534018D3222B11D202A072DC39414FDE1AA227A18B11DF52F22901142
:2007C0002EB1CDC2E2241B93F5F07A21B11DA4AFF0FE755002B11D120886301A5F7A2F746D
:2007E0001F93B5130050010AB11DF53C7A31B11DFC7B057908200C13B11DC3953740077458
:200800001A93954D5022D20C754D007A3312051DF5F012051DA4EC20E70723C923C91B802C
:20082000F6A4ACF030E7010CECB50100400B1204D9E5502B120509F55002087312063812DE
:20084000051DF5F07A253018010A12051DA4E5F012087DE53C12087D7A2712063820180D6D
:200860007A291206382019057A2B12063212051D1208860210508E4E8F4F0210536012246D
:200880008050031305501204D9E55004120509F55022021068301C08120A4A752000D206CD
:2008A000100103D20122201A15201D1FA21982184022201829120A4AD206C20021C5D206AE
:2008C000D2007A3512051DF57F212DD206C200120A4A21C5743C93C313F9780041050210D9
:2008E0006B301B097A3612051DF57F80407A3712051DF5F020B50A743993B5F0004002F55C
:20090000F030060E02106E20000385377F757C01C206E5F0B57F005011D57C0B157F743FFE
:20092000A200340093F57C857FF085F07F7438932537D3957F50087480957E4002514A0235
:200940001071E57FC3953792025006C203F4048002C204FBA97EA87D1003161004137A38EB
:200960003002010A12051DF5F0EB120BDD887D897E2002147A3A12051DF5F0EBB43F00400F
:2009800002E53F2323120BDD021074E9C330E713201A1F743D93132480B501005014F9D25C
:2009A00003800F743E9313F42480B501004003F9D2047A3D12051DB549004002D204E9C340
:2009C00094809205F90210777A3C12051DF5F0301D077A3B12051D5155301B05743B935155
:2009E0005520B505743A9351557480A402107A28F8E5F039F930E70D3005067900780080C6
:200A000004797F78FF02107DAF01AE0074011205098F7B7441931204D97442932FFF740BAA
:200A200093F8740C93F9120455EEF4F8EFF4F9740B93FB740C93FCD3EE9BCF9CFBC2AB8F24
:200A4000448B4588428943D2AB22757E80757D00790078002225F05002E5FFF5F0227A3ECB
:200A600030B4027A4112051DF51812051DF51912051DF51A22301C03751B80A81CA91BA264
:200A800097B39202400E202605120BCD8013E4120BD4800D302605120BCD8005E51A120B1A
:200AA000D4881C891BA202922602105C201A4A201947201D44000000744B93B53700403914
:200AC000744C93B54900501530252E202109D221C222744D93F53FE53F601E8002C22174B9
:200AE00049201802744893FA202504744A932AC395139225120B508002C22512105F309627
:200B000017209714202309D223C224744393F53EE53E701AC227801620240DD224C223C235
:200B200022D220744493F53EE53E7002D227A225822782209225400A78007980881C891BC9
:200B4000C2220210621204557401120509021065744693FBC3E99B40047800800A744793A3
:200B6000FBC399402478FFEBF9881C891B202119202210744593B4FF06C222D220800AD234
:200B800022F53FE53F7002C220227A4EEA93B537004010CA0493CA9AB5370050028006D289
:200BA000958002C295301F07E51BA2E70092B122302506C295C20B80EC200B09745093F518
:200BC0003FD295D20BE53F7002C29580D8E51875F0018009F404251975F010C224A430F705
:200BE0000375F07F300205B3F463F0FF38F8E5F039F9E4200202B3F44002F8F922201A5415
:200C00007A4412051DFB20092FB549004004C2088042745220080AD20893F558745493F5BF
:200C200059E558702FD209745393F558745593F559D21D8D328D3122E5587006C208C2097D
:200C40008012745193F4042BC395495007D21D8D328D31220210591559E559700F74543073
:200C600009010493F559E558600215580210560000000000D29522C28975A000F2F2F2F260
:200C8000740D93F5F0A2B392E07D007E027F023385F02A301703C217F2DD1120E0077F02B9
:200CA000DE0A02024E7E02DF0302024EA2B392E072E1500CA2E082E140067D007E027F0227
:200CC000333089CCD2A8C21C02100830B3FD20B3FD2230B407D231D230020CE0C231D23045
:200CE000020F9A201C6EE529600314F52920B41BC236303142203045203406D232C233800A
:200D000004C232D233D230C23180497A46203111745893F529201D2B103609A234923580A5
:200D2000032030192035010A12051DC39414A2E713D231C230F531E5297019D230C232C242
:200D4000338011D230C231C232C233203606A2349235D23622201C3E30303B20320520330F
:200D600002A196D534309011607456203202745793F5347A4512051DFDE532FEAF31C39F14
:200D8000C320E7079D4004EF2DA194C232C233753401E532F53122E528C39537500DF5F080
:200DA000746D9325F04004C2348002D23485372822201C0C30301320160920320D20330A2C
:200DC0000200F3C232C2330200F302012C201C11201D0A20300BC215C2160207A7C232C20D
:200DE00033020708021080E106752700C228F121745F939513B3923CA225B3923D7460935F
:200E00009512923E785C745D30390378590493F5F0021083E52754786002C1C3745993F456
:200E2000042559251BFBC39692025002F404A4AEF0FD08200219E62DF608E63EF65030C3CE
:200E40009480F61818745A93D3964023068017C3E69DF608E69EF650162480F61818745BD1
:200E600093C396500A16303906E67806121DF2C374599395592BF51B203948021086D56365
:200E800042745C93F563C3E55C95595002F404920275F00130380FA95FA86071DD855FF076
:200EA000895F8860800DA961A86271DD8561F089618862E9780C2038027812B5F00280034E
:200EC000121DF2021089C3E55F948092D55002F404F9AB378537F0743284FF1204EAFEE9F3
:200EE0001204D9EF60027EFFEEC313248030D502F4002561B392D55002F4007002C2D5F5EE
:200F000058A2D5922922E5498537F0A4AFF0FE74A41204D9740212050960027FFFEFFCA101
:200F2000E902108CC37463939C500A746493C3954992398030746293953740097461939CFE
:200F4000B392388020746693C395375018746593C39C40117467939549500A746893C39587
:200F6000494002D23AE52754077002D23B22745993F404255929F96145E55875F004A430BA
:200F80002905B3F463F0FF3EFEE5F03FFFE4202902B3F44002FFFE0201BE75891175B802C7
:200FA00043A885438805901160758163C292740D93F52A12063F12101A120FE712065912F2
:200FC0000FE712068F12101A120FE71207B7120FE712101A1207BE120FE702101D301CBA08
:200FE00012021D12030C22101701220202C6FFFFFFFFFFFFFFFFFFFFFFFFFFFFFFFF004237
:20100000C295020C6F021F4E021F3A020272121E53020278FFFFFF020C77021E6D021F7D10
:20102000FFFFFFFFFFFFFFFFFF0200F30201770201BE020408021F8E021B3022FFFF020C51
:2010400057FFFFFFFFFFFF021BD0021C8F020BFD021DE0021B39020892020708021CB702C2
:201060001E00020B45020BA50208950208E1020907020942021B820209C80209EF021B409C
:2010800002FFFF02FFFF02FFFF02FFFF02FFFFFF0002021A107476780E6E70720C0A0868DD
:2010A0006A6C127A7C7EFFFF191C383A44429EA0A23C3E989A9C41FF2E201E228082842508
:2010C000262A8C8E9046484A4C4E505255FF595B5D595B615EFFFFFF0414162C92949629EE
:2010E00087898B3032343656A4A6A807636567FFFFFFFFFFAEA09387F7E3D0BF0102030435
:2011000004050607818486898B8E919496999C9FA2A5A9ACAFB2B6B9BDC1C4C8CCD0D4D83F
:20112000DCE0E4E91604892F2F1903020100170823261D140E0E0A600001020304050607CB
:201140005A3347404040404040404040404040403A3B3D3E3F3F3F3F3F4040404040404090
:201160002C02FC424200008484000031161E0A0604A21FDC110801FF405A0C80847C88A23A
:201180005028FC49F93C140801010801020101F9FF09092405011E3E0415180017C0270271
:2011A000018A424209FF93605858078E66064B05FF321A1D0AB4FFFFFFFFFFFFFFFFFFFF08
:2011C000FFFFFFFFFFFFFFFFFFFFFF78FF558C55FF3731FF131211492F107A26287A2628B9
:2011E00012A012A612C012CA1376139813A213AC13BC13C413CC13D413DC1447144F145BA7
:201200001570146514731486148C153815441566157A1584158A15901598159E15AC15B29A
:2012200015BC15D315DB15E515EF15F91601160B1615161F1629164F1659169416BA16E0DE
:2012400018EC16FA12CA191217A6137619BE17C813AC19E017D81B0419F017E01B0C19F879
:2012600017E81B141A0017F6148C1A0E18A215381ABA18AE15441AC618D015B21AE818DAD4
:2012800015D31AF218E2164F1AFAFFFFFFFFFFFFFFFFFFFFFFFF14042E52483801030200D5
:2012A000130241808080040C0407080F1A351C1C1007031602132534485F89A2C3E0F3FB9E
:2012C0003704182C486711141921370C040408080808181010181064490C050B0506050AD3
:2012E000100B0A16147223262C2F313131313131313123262C2F3131313131313131232A88
:201300003139404033313131313132394040404134312D2D2D2D37404044443C39332E2DF4
:201320002D2D3C40404344413B36342D29294047474747423C37342D2929464B4F4F4F4821
:20134000454039312E2D464B4F4F4F4F484540393634464B4F4F4F4F4F48423D3936464B23
:201360004F4F4F4F4F48453E3A36464B4F4F4F4F4F48453E3A3637100C0D0303070C0706CA
:201380000C0D0C0D0705066432322D2727272A2E2E3030303032323212040604023F14143A
:2013A00014141304160F524F14141414370704030E081018AC3F1B1B1C2A2A4713034E59C0
:2013C0004F260D1413030E4A5E1406143703070DE91C323213034E554F1B140D370C030438
:2013E00004040410100527231F5E11071D1E1D1E1D070E191A17100C0A07492A17100C0A0E
:2014000007492A17100C0A07512E19120E0B075D351D14100D086A3D2117120F096A613553
:20142000251C180E6A613A2A211B106A6A3F2E241E126A6A6A4E3D331E6A6A6A6A53452AB1
:201440006A6A6A6A675633130338427C12141413056C191E1E3164641E1E1E1204202E3BE3
:201460006D908A80801306201016085058A65A432D0F0037033232834903283C74FFFFFF15
:20148000FFFFC0FFB380370219DAFFFF370C040408080808181010181064490C050B050693
:2014A000050A100B0A161472858585858585848383838383858585848484848484848484F8
:2014C00085858584848484848484848485868686868688888989898985868687888888884A
:2014E000898F8F8F8586878888898989898A959585868888888989898A8C949485878888A4
:201500008A8A8A8A8B8C8D96858788888A8A8A8B8B8C8D93858789898B8B8B8B8B8B8B8F73
:2015200085878888888989898989898A88888A8A8A89888888888888370502020A10D08036
:201540008383848437100C0D0303070C07060C0D0C0D070506648A8F95979A9D9D9F9F9D5B
:201560009D9B9B9B9B9B13042E1D1E6D5A2D33001204160F0F4F0027272713044A1E216909
:20158000B61C120C130238BE0F0F4D0214ECFB5337030304F1F8CB93110275155D1D3706B9
:2015A000030D0E32326A404080808080030231CD00FF13041E1D1E6D262613003703191915
:2015C000B549041E1E1E7EFFFFFFCDFFFFFFCDFFFFCDB31303282D833B2C0003040D101096
:2015E000D0000040FF13040F6F165E2819171413044B1D364D1414141413036D274D1917EE
:20160000150304020B03F0020A10010304020605F3020A0A100304010806F0001E50503769
:2016200004010D12C1001A1A1A37060505090B329C13043016634DFF605917FF605917FFA4
:20164000605917FF6E5A1AFF998933FFC8BA8013044D1D2A5E281B161437070A0A0A0A1494
:20166000199C49060A0A0A14149C04070A0A0E0E080F121616160C13181D232314202327C6
:201680002D2D1E20272D2D2D28282D2D2D2D28282D2D2D2D37040A0A0AC949060A0A0A1459
:2016A000149C283C46505A5A2841505F5F5F344D646464644B646464646437040A0A0AC984
:2016C00049060A0A0A14149C050505050505050505050505090909090C0C05080A0C10101E
:2016E000370C0D06060D190C0D0C07060664FFFFFFFFFFFFFFFFFFFFFFFF370C040408087D
:201700000808181010181064490C050B0506050A100B0A16147223262C2F313131313131EB
:20172000313123262C2F3131313131313131232A313940403731313131313239444548423A
:2017400037313131313137404A4F4F453C37313131313C434A4F4F48423B35312D2D40490D
:201760004F4F4F48423C342D2929464B4F4F4F48454239322E2D464B4F4F4F4F484540391D
:201780003634464B4F4F4F4F4F48423D3936464B4F4F4F4F4F48453E3A36464B4F4F4F4F69
:2017A0004F48453E3A3637100C0D0303070C07060C0D0C0D0705066432322D2727272A2E13
:2017C0002E30303030323232370702030E081018AC401B1B1C2A2A4713034E594F261414D1
:2017E000130373255E141414130620101E1D3556A65A43211300370C040408080808181088
:2018000010181064490C050B0506050A100B0A16147280808080807E7C7C7E7E7E7E8080FE
:201820008080807E7C7C7E7E7E7E7C7C7E7E7E7E7D7D7E7E7E7E7C7E7F807F7F80808089D8
:201840008C8C7C7E808082828282838B8F8F7C7E808282828282838395957C7E818282820D
:20186000828283858D957F8082838483838383878D95818283848483838384878D938384B4
:2018800084848484838484878D8D85858585858584848486898C8888888888868686868681
:2018A0008687370502020A10D0808383848437100C0D0303070C07060C0D0C0D0705066435
:2018C0008A8F95979A9D9D9F9F9D9D988D8A8A8A13041E1D1E6D2626131313032D4B5E3B3E
:2018E0002C0013044D1D2A5E281B161437040A0A0AC949060A0A0A14149C0A0A0A0C0F0FAB
:201900000A0A121419190F16191D1D1D0F191E212121370C040408080808181010181064EE
:20192000490C050B0506050A100B0A16147223262C2F313131313131313123262B2B2B2B46
:201940002B2B2B313131232A2B2C2C2C2929293131313232312F2C2C2929293131313632D7
:20196000312F2E2C292929313131383531312F2D2A2A292D2D2D3D3631312F2F2E2D292990
:201980002929404040404041393939322E2D464B4F4F4F4F484540393634464B4F4F4F4F32
:2019A0004F48423D3936464B4F4F4F4F4F48453E3A36464B4F4F4F4F4F48453E3A363710AD
:2019C0000C0D0303070C07060C0D0C0D0705066432322D2727272A2E2E303030303232323E
:2019E000370702030E081018AC401B1B1C2A2A4713034E594F261414130373255E141414EB
:201A0000130620101E1D3556A65A43211300370C040408080808181010181064490C050BAC
:201A20000506050A100B0A16147280808080807E7C7C7E7E7E7E80808080807E7C7C7E7EEB
:201A40007E7E7C7C7E7E7E7E7D7D7E7E7E7E7C7E7F807F7F808080898C8C7C7E8080828292
:201A60008282838B8F8F7C7E808282828282838395957C7E81828282828283858D957F80D4
:201A800082838483838383878D95818283848483838384878D93838484848484838484879D
:201AA0008D8D85858585858584848486898C888888888886868686868687370502020A101A
:201AC000D0808383848437100C0D0303070C07060C0D0C0D070506648A8F95979A9D9D9FC2
:201AE0009F9D9D988D8A8A8A13041E1D1E6D2626131313032D4B5E3B2C0013044D1D2A5E9F
:201B0000281B161413034E594F260D14130373255E141414130620101E1D3556A65A432546
:201B20001600FFFFFFFFFFFFFFFFFFFFFFFFFFFF300703020A7502105F300703021D1522E1
:201B4000AF01AE0074011205098F7B7441931204D97442932FFF740B93F8740C93F91204AE
:201B600055EEF4F8EFF4F9740B93FB740C93FCD3EE9BCF9CFBC2AF8F448B4588428943D200
:201B8000AF22E9C330E713201A1F743D93132480B501005014F9D203800F743E9313F42463
:201BA00080B501004003F9D2047A57F1F212051DB549004002D204E9C394809205F902107D
:201BC000779011241205CD139219139218021047E515B48000B3921B9012961205CD1392C2
:201BE0002F13922E000000302E04C20761F0D207741093C39537500B7A0312051DC395374D
:201C0000401F22D21A300714746F93B51300B3922D746D93B51300B3922C8120C22CC22D31
:201C200022C21A227D00C3301A087A4991AE91AE818C3018127A04202C04F1F28141121DA8
:201C40001091AE7A0881883019067A0C91AE81697A12202C04F1F2815C121D1091AE7420FE
:201C600093954940047A5B81887A0D91AE2019027A5B90112E1205CD30E20D742193C395A9
:201C80003750057422932DFDF1F291AE02104A7A4891AEF8A2E7742350010493F95001C8D4
:201CA000C3985002E9FDEDA2E713FD02104D12051D2DC39414FD22201A5120194E201D4B27
:201CC000000000744B93B537004040744C93B549005015302535202109D221C222744D9391
:201CE000F53FE53F60258002C221302C04746E80077449201802744893FA202504744A93FF
:201D00002AC395139225120B508002C225020AFB74022AFA227A3E202E0530B4027A410230
:201D20000A65FF90112E1205CDC2E2241B93F5F07A2A12051DA4AFF0FE755002302F05746F
:201D40006B93B1F0301A627A28741F93B5130050010A12051DF53C7A5312051DFC7B0579F2
:201D600008200C1412051DC395374007741A93954D5022D20C754D007A5512051DF5F01202
:201D8000051DA4EC20E70723C923C91B80F6A4ACF030E7010CECB50100400B1204D9E550A5
:201DA0002B120509F550021DDD202D04F1F2A1B3121D1012051DF5F07A2F3018010A1205A4
:201DC0001DA4E5F0B1E7E53CB1E77A312018077A4B2019027A4FF1F212051DB1F00210504F
:201DE0008E4E8F4F0210536012248050031305501204D9E55004120509F55022FFFFFFFF48
:201E000088F075A019781BB81B04D2D5802DE6F275A01B7831B83106E6240A238001E6F22E
:201E200005A0E537F205A0E549F205A0E510F205A0E513F2801A75A098C2D57460F4042540
:201E40001B2323F8E51C333333540338F210D5C0A8F0227528807526007529FFD22BD29BF0
:201E6000C2997599FF3099FDC29BC29822301F0122301E0122302B25C22B209803D21F223D
:201E8000E599B4EE0ED21EC2997599FF3099FD7598B022E599C394FF6016D21F22309810E2
:201EA000E529C394FF60099011DAE52993F9A7999011D1E493121EF9A3E493121EF9A3E424
:201EC00093121EF9A97AC299E7F5993099FDD29B0529E529B406087529FF74FF021EEA9078
:201EE00011D493F9E7B4FF0274FEC299F5993099FDC29BC29890116022B4FF1B301D04E4D7
:201F0000021F19E54BA2E4540FC4F5F0E54A54F0C445F013021F19F9E7C299F5993099FD7D
:201F200022201F07201E04E5262DFD818F201F07201E04E528B1F0021DE075891175B8023F
:201F400043A885438805901160758163C292740D93F52A12063F12101A121F87121BC11215
:201F60001F87121C2412101A121F871207B7121F8712101A121D23121F8702101D301CBA72
:201F800012021D12030C22101701220202C6201A5020184DC3E51095534046F5037437934E
:201FA000C39537500575F000E1B77A1C12051DF5F0F1F212051DA4200F0385F04C7A211236
:201FC000051D601DF5F0E54C6002D20FF1F212051DA47A2612051DA4E5F0B53D004002F5D8
:201FE0003D855253855152851051E53D121DE702040DE4A2B433A22E5003332AFA2201ED2A
:00000001FF
